:1000030000FF000100F100090005000500050009DB
:1000130000F10001000500FD0005000100010001E1
:100023000001000500FD002500750005000D00011D
:10003300000500FD000500050005000900F10001B1
:1000430000F900050005000500F9000100010001A9
:10005300000100C100B1008900FD008100010039E9
:100063000045004500C500790001001D0001001D89
:10007300000100010001000100010001000100FF77
:1000830000FF000000000081006200A20092001146
:100093000000000000C2002300F2000200020083FF
:1000A30000800002008300820002002200130090FF
:1000B300009200630002002200120011001000E011
:1000C3000001000200020002001100F00010000213
:1000D300001000F00010000000C300200010001208
:1000E30000120031000100000000000000000000C9
:1000F300000000000000000000000000000000FFFE
:1001030000FF000000800047004900480088000706
:10011300004000C300020002000F008200400048BC
:10012300004D0082000D0008000000080008004890
:1001330000C8000700000008000C000A0009000CBA
:100143000000000000000000000800CF00080000CD
:100153000008000F004800C0004300440048008826
:1001630000080004008000400040004000C0000080
:1001730000C000400040004000C00040000000FFFD
:1001830000FF0080009F00A000A000A0009F00804F
:1001930000A000BF00A00080008000A000B000A865
:1001A30000A400B30080009000AA00AA00BC00A035
:1001B300009F00A200A2009C0080009C00A200A25D
:1001C30000A6008000A000B800AF008800AF00B810
:1001D30000A0008000A000BF00A200A200A2009D1A
:1001E3000080008F009000A000A000A0009000807D
:1001F30000B000A800A600A100A000B0008000FF8E
:04031C007F087E00D8
:10032000EF1F70011E144E600E7C327D641DED6067
:07033000EF1CEC60F880FAFD
:0103370022A3
:10035300C2B27F01120365D2B17F01120365C2B13C
:020363007F0118
:07036500AE071FEE70FA2243
:1002FF007E08AD061EED6014EF30E704D2B2800227
:0C030F00C2B2D2B1C2B1EF25E0FF80E61F
:01031B0022BF
:0B0394001202FF12039FAF041202FFD1
:05039F00D2B20203557B
:0303DC00020353C6
:0B03CA001203537F781202FF02039F12
:10036C00D2B17F01120365C2B27F01120365D2B212
:05037C007F0102036592
:0D03A400AC071203CAE4FF12039402036CBD
:0D03B100AC071203CA7F4012039402036CD4
:10038100AB07EBC4540F4410FF1203A4EB540FFF4F
:030391000203A4C0
:0703D500EF24B0FF0203A4B6
:10029600E4F508F509FAAF021203D57F20120381AF
:1002A6007B20E50925E0FFE50833FE74032FF58280
:1002B60074003EF583E493740193FF1203B10509BC
:0E02C600E509700205080BBB60D80ABA04C82F
:0102D4002207
:0202D500AA0776
:1002D700E4F508F509F9AF011203D57F2012038170
:1002E7007B20AF021203B10509E509700205080B6F
:0702F700BB60EF09B904DF51
:0102FE0022DD
:10020300C2B37F0A7E00120320D2B37F057E0012A1
:1002130003207FAE1203A47FD51203A47F801203B1
:10022300A47FA81203A47F1F1203A47FD31203A4E5
:10023300E4FF1203A47F401203A47F8D1203A47F63
:10024300141203A47FA11203A47FC81203A47FDAAC
:100253001203A47F121203A47F811203A47FFF124F
:1002630003A47FD91203A47F221203A47FDB12030A
:10027300A47F201203A47FA41203A4E4FF1202D5D7
:100283007F017E001203207FAF1203A47F017E0053
:0302930002032043
:10033800120203E4FF1202D512031C7FFF1202D53A
:0B03480012031C12029612031C80E836
:030000000203BE3A
:0C03BE00787FE4F6D8FD75810902033851
:00000001FF
